:100000000C943E000C9453000C9453000C94530039
:100010000C9453000C9453000C9453000C94530014
:100020000C9453000C9453000C9453000C94530004
:100030000C9453000C9453000C9453000C945300F4
:100040000C9453000C9453000C9453000C945300E4
:100050000C9453000C9453000C9453000C945300D4
:100060000C9453000C9453000C9453000C945300C4
:100070000C9453000C9453000C94530011241FBE95
:10008000CFEFD8E0DEBFCDBF12E0A0E0B1E0E0E707
:10009000F6E102C005900D92A432B107D9F70E9493
:1000A000A9000C94360B0C94000081E061E041E95A
:1000B0000E948F0382E061E040E80E948F03089570
:1000C00081E061E04FEF0E948F0382E061E04FEF3B
:1000D0000E948F0308950F931F93CF93DF9380E0C7
:1000E00063E040E00E948F03C0E0D0E008EC10E045
:1000F00081E00E944F0384EC99E0F8013197F1F719
:100100000197D9F780E00E944F0384EC99E0F80151
:100110003197F1F70197D9F781E00E944F0384EC02
:1001200099E0F8013197F1F70197D9F780E00E9443
:100130004F0384EC99E0F8013197F1F70197D9F773
:100140002196CA30D105A1F6DF91CF911F910F9171
:100150000895AF92BF92CF92DF92EF92FF920F93EA
:100160001F93CF93DF930E94F5010E9415020E9416
:10017000010580E063E040E00E948F0381E090E0B1
:1001800069E170E00E94030290E0A92E91E0B92E8F
:100190000F2EF0E0EF2EF0E0FF2EF0E00F2FF0E05A
:1001A0001F2FF02DC8ECD0E08DE0C82E81E0D82EB6
:1001B000369904C0379902C00E946B0036992EC050
:1001C00000D000D000D0EDB7FEB7B282A182E382AA
:1001D000F482058316830E94E3038DB79EB70696CB
:1001E0000FB6F8949EBF0FBE8DBF81E00E944F03F3
:1001F00080E060E00E94550384ED90E3FE013197BA
:10020000F1F70197D9F781E061E00E94550380E1A1
:1002100097E2FE013197F1F70197D9F737992EC090
:1002200000D000D000D0EDB7FEB7D282C182E38209
:10023000F482058316830E94E3038DB79EB706966A
:100240000FB6F8949EBF0FBE8DBF81E00E944F0392
:1002500080E060E00E94550384ED90E3FE01319759
:10026000F1F70197D9F782E061E00E94550380E140
:1002700097E2FE013197F1F70197D9F781E090E01D
:100280000E944D028458934008F056C081E00E94BD
:100290004F0380E090E00E944D028C5A9340B8F4E6
:1002A00080E060E00E94550388E893E1FE01319709
:1002B000F1F70197D9F782E061E00E94550380E1F0
:1002C00097E2FE013197F1F70197D9F76CC082E010
:1002D00090E00E944D028E589340B8F480E060E0B8
:1002E0000E94550388E893E1FE013197F1F70197E9
:1002F000D9F781E061E00E94550380E197E2FE01B9
:100300003197F1F70197D9F74EC080E060E00E9485
:10031000550388E893E1FE013197F1F70197D9F78A
:1003200081E061E00E94550380E197E2FE01319790
:10033000F1F70197D9F737C080E090E00E944D02B5
:100340008C5A9340A8F481E00E944F0382E061E060
:1003500048E70E948F0381E060E04AEF0E948F032C
:1003600084ED90E3FE013197F1F70197D9F71BC0B7
:1003700082E090E00E944D028E589340A0F481E00C
:100380000E944F0381E061E048E70E948F0382E012
:1003900060E04AEF0E948F0384ED90E3FE01319705
:1003A000F1F70197D9F7369B03CF379B01CF80E058
:1003B00090E00E944D028C5A934008F4F9CE81E0FF
:1003C00090E00E944D028458934008F4F1CE82E000
:1003D00090E00E944D028E58934008F4E9CE80E0F0
:1003E0000E944F030E946000E3CE11B814B817B802
:1003F0001AB80E9A209A219A239A249A259A269816
:10040000279A169808957093C5006093C400892BAD
:1004100029F08091C00082608093C00086E08093C4
:10042000C20088E18093C1000895E4E6F0E0808195
:100430001082ECE7F0E0808180648083EAE7F0E0FE
:10044000808180688083089583309105B1F0843085
:10045000910534F48130910561F00297E9F40BC005
:1004600085309105A1F08530910564F00697A1F4DF
:1004700011C067BD089568BD0895709389006093A9
:100480008800089570938B0060938A0008956093AC
:10049000B30008956093B400089590917C00907E1D
:1004A00090937C0090917C00982B90937C0080939B
:1004B0007E0080917A00806480937A0080917A0037
:1004C00084FFFCCF2091780030E040917900942F98
:1004D00080E0282B392BC90108958091C00087FF47
:1004E000FCCF8091C0009091C1009091C6008C71AA
:1004F00009F49FE3892F0895982F8091C00085FF0C
:10050000FCCF9093C6008091C00086FFFCCF089579
:10051000EF92FF920F931F93CF93DF937C019C0187
:1005200097FF08C08DE20E947C02F094E194F108EC
:10053000F3949701C1E0D0E010C0CE01880F991F5D
:1005400043E0CC0FDD1F4A95E1F7C80FD91FC90161
:100550006AE070E00E94EB0A9B012A30310568F7DF
:1005600018C0C701BE010E94EB0A8B01862F805D77
:100570000E947C020C9FC0010D9F900D1C9F900D4E
:100580001124E81AF90ACE016AE070E00E94EB0A31
:10059000EB01209731F7DF91CF911F910F91FF90E1
:1005A000EF900895EF92FF920F931F93CF93DF93F5
:1005B0007B018C010E94A208EB01BE01882777FD18
:1005C0008095982F0E9444089B01AC01C801B70197
:1005D0000E948C0620E030E04AE754E40E94EA06DC
:1005E0007B018C0120E030E040E050E00E941408E4
:1005F000882324F417FB109517F91095CE010E945B
:1006000088028EE20E947C02C801B7010E94A20803
:10061000DC01CB010E948802DF91CF911F910F91E5
:10062000FF90EF90089580688EBD0DB407FEFDCF5A
:1006300080E58A95F1F76EBD0DB407FEFDCF80E52C
:100640008A95F1F708958EBD0DB407FEFDCF88ECB5
:1006500090E00197F1F71EBC0DB407FEFDCF8EB5FB
:1006600090E59A95F1F70895809164008B7F8093CF
:1006700064008FE58CBD80E860E80E94130380E190
:1006800097E228EC30E0F9013197F1F70197D9F7BB
:1006900082E00E94230383E00E94230308958130B7
:1006A00011F4169A089516980895882391F46130EC
:1006B00021F42B9A2C9A289A23C0662321F42B9A92
:1006C0002C9A289822C0623011F0633039F52B98AB
:1006D00020C0813081F4613019F42B9A289A089552
:1006E000662319F42B9A28980895623011F063302C
:1006F000A9F42B980895823089F4613019F42C9A6A
:10070000299A0895662319F42C9A2998089562303D
:1007100011F42C980895633009F42C9808958823D7
:1007200099F4613019F447BD48BD0CC0662321F42B
:1007300047BD48BD289823C0623011F0633051F5A1
:1007400017BC18BC289A20C0813081F4613011F4A4
:1007500047BD0AC0662319F447BD28980895623042
:1007600011F06330B9F417BC289A0895823091F4DF
:10077000613011F448BD08C0662319F448BD2998BA
:100780000895623019F418BC299A0895633011F461
:1007900018BC299A08951092800085E0809381000A
:1007A0008FB7F89410928500109284008FBF08953F
:1007B0008FB7F894E4E8F0E0208131811182108253
:1007C0008FBFC90108956F927F928F929F92AF92CF
:1007D000BF92CF92DF92EF92FF920F931F93DF931E
:1007E000CF930F92CDB7DEB76A887B888C889D88BF
:1007F000AE88BF8868E1E62EF12CEC0EFD1ECC24FD
:10080000DD2490E064C099830E947C020894C11C9E
:10081000D11C9981F8018081853229F00F5F1F4F2B
:10082000882389F751C00894C11CD11C83010C0D89
:100830001D1DF8018081843629F0863641F183360A
:10084000C9F514C0992349F4C501B4010E94A20856
:10085000DC01CB010E94880236C087010E5F1F4F6A
:10086000F701808191810E94880222C0992339F486
:10087000C501B4010E941405DC01CB0122C087012F
:100880000E5F1F4FF70180810E947C0211C09923E7
:1008900029F4C501B4010E94D20215C087010C5F82
:1008A0001F4FF70160817181828193810E94D20282
:1008B000780109C0F801319780810E947C02F8011B
:1008C00080810E947C0291E00894C11CD11CF3013C
:1008D000EC0DFD1D8081882311F08F019BCF8DE0F1
:1008E0000E947C028AE00E947C020F90CF91DF91EF
:1008F0001F910F91FF90EF90DF90CF90BF90AF903E
:100900009F908F907F906F900895DF93CF93CDB796
:10091000DEB7CE010796FC012D813E81C9014FEF64
:1009200050E02FEF66C08330910531F1843091059E
:100930003CF48130910571F0029709F058C013C062
:1009400085309105C9F18530910534F1069709F09C
:100950004EC040C0239A84B5816884BD85B582604D
:1009600085BD27BD44C0249A84B5816284BD85B508
:10097000826085BD28BD3BC0549A8091800081680B
:1009800080938000809181008260809381005093E9
:100990008900409388002BC0559A80918000816225
:1009A00080938000809181008260809381005093C9
:1009B0008B0040938A001BC0579A8091B0008168D9
:1009C0008093B0008091B10082608093B100209349
:1009D000B3000DC0569A8091B00081628093B00040
:1009E0008091B10082608093B1002093B400819126
:1009F00091913FEF8F3F930709F095CFCF91DF9112
:100A0000089500D000D081E090E0EDB7FEB792836A
:100A1000818382E090E0948383830E9485040F9019
:100A20000F900F900F900895EF92FF920F931F93E6
:100A30007B018C0120E030E040E05FE40E94E407AD
:100A400088238CF0C801B70120E030E040E05FE48B
:100A50000E948C060E94A2089B01AC0120503040ED
:100A60004040504806C0C801B7010E94A2089B013F
:100A7000AC01B901CA011F910F91FF90EF90089549
:100A8000A0E0B0E0E6E4F5E00C94FF0ADC012B0105
:100A9000FA019C91923008F439C1EB0188818230CF
:100AA00008F433C1943069F4843009F02FC11196F1
:100AB0009C9111978981981709F428C1ABE1B1E0A5
:100AC00025C1843009F421C18230A9F4923009F0A3
:100AD0001DC19A01AD0188E0EA010990AE01E9016A
:100AE00009929E018150C1F7E201898111969C9182
:100AF0008923818308C1923009F407C112962D9091
:100B00003C901397EB018A819B811496AD90BD9028
:100B1000CD90DC901797EC80FD800E811F819101B4
:100B2000281B390BB90137FF04C066277727621BE2
:100B3000730B603271050CF061C0121613066CF570
:100B400037014801062E04C09694879477946794E1
:100B50000A94D2F721E030E040E050E004C0220FD8
:100B6000331F441F551F6A95D2F721503040404033
:100B700050402E213F2140235123211531054105AD
:100B8000510521F021E030E040E050E079018A0198
:100B9000E628F728082919293CC0232BD1F1260E75
:100BA000371E35014601062E04C09694879477942B
:100BB00067940A94D2F721E030E040E050E004C0AE
:100BC000220F331F441F551F6A95D2F72150304022
:100BD000404050402A213B214C215D212115310507
:100BE0004105510521F021E030E040E050E059019D
:100BF0006A01A628B728C828D9280BC082159305F2
:100C00002CF01C01AA24BB24650103C0EE24FF24A0
:100C1000870111969C91D20111968C91981709F435
:100C200045C0992339F0A80197012A193B094C09BD
:100C30005D0906C0A60195012E193F09400B510B15
:100C400057FD08C011823382228224833583468374
:100C500057831DC081E081833382228288279927B0
:100C6000DC01821B930BA40BB50B84839583A683B5
:100C7000B7830DC0220F331F441F551F24833583B4
:100C80004683578382819381019793838283248152
:100C9000358146815781DA01C9010197A109B1095E
:100CA0008F5F9F4FAF4FBF4328F30BC091833382B9
:100CB0002282EA0CFB1C0C1D1D1DE482F5820683BA
:100CC000178383E08083248135814681578157FFD4
:100CD0001AC0C901AA2797FDA095BA2F81709070FC
:100CE000A070B0705695479537952795822B932B1A
:100CF000A42BB52B84839583A683B78382819381AC
:100D0000019693838283DF0101C0D201CD01CDB76B
:100D1000DEB7E2E10C941B0BA0E2B0E0E2E9F6E002
:100D20000C940B0B69837A838B839C832D833E8386
:100D30004F835887E9E0EE2EF12CEC0EFD1ECE011C
:100D40000196B7010E941A0A8E010F5E1F4FCE0155
:100D50000596B8010E941A0A8A8991E089278A8B30
:100D6000C701B801AE01475E5F4F0E9440050E9477
:100D70004509A096E6E00C94270BA0E2B0E0E3EC76
:100D8000F6E00C940B0B69837A838B839C832D8311
:100D90003E834F835887F9E0EF2EF12CEC0EFD1EB9
:100DA000CE010196B7010E941A0A8E010F5E1F4FF5
:100DB000CE010596B8010E941A0AC701B801AE011A
:100DC000475E5F4F0E9440050E944509A096E6E0FD
:100DD0000C94270BA0E2B0E0E0EFF6E00C94FF0AE1
:100DE00069837A838B839C832D833E834F835887CB
:100DF000CE010196BE01675F7F4F0E941A0ACE01A5
:100E00000596BE016F5E7F4F0E941A0A9985923047
:100E100088F089898230C8F0943019F4823051F416
:100E200004C0843029F4923081F48BE191E0C6C093
:100E3000923049F420E09A858A89981321E02A8724
:100E4000CE010996BBC0823049F420E09A858A8998
:100E5000981321E02A8BCE014196B0C02D843E84A8
:100E60004F8458886D887E888F88988CEE24FF2464
:100E70008701AA24BB24650140E050E060E070E0F7
:100E8000E0E0F0E0C10181709070892BE9F0E60CA0
:100E9000F71C081D191D9A01AB012A0D3B1D4C1DA5
:100EA0005D1D80E090E0A0E0B0E0E614F7040805E6
:100EB000190520F481E090E0A0E0B0E0BA01A901BA
:100EC000480F591F6A1F7B1FAA0CBB1CCC1CDD1CC2
:100ED00097FE08C081E090E0A0E0B0E0A82AB92A1F
:100EE000CA2ADB2A3196E032F10549F0660C771CFC
:100EF000881C991C5694479437942794C3CFFA853D
:100F0000EA892B893C898B859C85280F391F2E5FA8
:100F10003F4F17C0CA0181709070892B61F0169500
:100F20000795F794E79480E090E0A0E0B0E8E82A25
:100F3000F92A0A2B1B2B76956795579547952F5FB6
:100F40003F4F77FDE7CF0CC0440F551F661F771F3B
:100F500017FD4160EE0CFF1C001F111F2150304097
:100F6000403090E0590790E0690790E4790760F31A
:100F70002B8F3C8FDB01CA018F779070A070B0700F
:100F800080349105A105B10561F447FD0AC0E11463
:100F9000F1040105110529F0405C5F4F6F4F7F4F51
:100FA00040781A8EFE1711F081E08A8F4D8F5E8F88
:100FB0006F8F78A383E0898FCE0149960E944509FF
:100FC000A096E2E10C941B0BA8E1B0E0EAEEF7E09A
:100FD0000C940B0B69837A838B839C832D833E83D4
:100FE0004F83588789E0E82EF12CEC0EFD1ECE01D0
:100FF0000196B7010E941A0A8E010F5E1F4FCE01A3
:101000000596B8010E941A0A8985823040F08989C4
:10101000823028F0C701B8010E94920A01C08FEF08
:101020006896E6E00C94270BA8E1B0E0EAE1F8E06E
:101030000C940B0B69837A838B839C832D833E8373
:101040004F83588789E0E82EF12CEC0EFD1ECE016F
:101050000196B7010E941A0A8E010F5E1F4FCE0142
:101060000596B8010E941A0A8985823040F0898964
:10107000823028F0C701B8010E94920A01C081E0C5
:101080006896E6E00C94270BA8E0B0E0EAE4F8E00C
:101090000C94080B9B01AC0183E08983DA01C90140
:1010A0008827B7FD83959927AA27BB27B82E211536
:1010B00031054105510519F482E089833AC088233E
:1010C000A9F0203080E0380780E0480780E8580722
:1010D00029F460E070E080E09FEC30C0EE24FF2453
:1010E0008701E21AF30A040B150B02C079018A0189
:1010F0008EE1C82ED12CDC82CB82ED82FE820F8362
:101100001887C801B7010E94F6080197181619063A
:1011100084F4082E04C0EE0CFF1C001F111F0A945B
:10112000D2F7ED82FE820F831887C81AD90ADC82B3
:10113000CB82BA82CE0101960E9445092896E9E049
:101140000C94240BACE0B0E0E8EAF8E00C940F0B50
:1011500069837A838B839C83CE010196BE016B5F8A
:101160007F4F0E941A0A8D81823061F1823050F1E6
:10117000843021F48E81882351F12EC02F8138854F
:1011800037FD20C06E812F3131051CF06623F9F048
:1011900023C08EE190E0821B930B29853A854B8515
:1011A0005C8504C056954795379527958A95D2F763
:1011B0006623B1F050954095309521953F4F4F4FA4
:1011C0005F4F0EC020E030E040E050E009C02FEF5C
:1011D0003FEF4FEF5FE704C020E030E040E050E831
:1011E000B901CA012C96E2E00C942B0BEF92FF920E
:1011F0000F931F937B018C0180E0E81680E0F806D6
:1012000081E0080780E0180788F48FEFE816F10402
:101210000105110531F028F088E090E0A0E0B0E091
:1012200017C080E090E0A0E0B0E012C080E0E816D7
:1012300080E0F80680E0080781E0180728F088E1E0
:1012400090E0A0E0B0E004C080E190E0A0E0B0E079
:1012500020E230E040E050E0281B390B4A0B5B0BEA
:1012600004C016950795F794E7948A95D2F7F7018D
:10127000ED5DFE4F8081281B310941095109C901EB
:101280001F910F91FF90EF900895DF92EF92FF92E0
:101290000F931F93FC01E480F58006811781D180B4
:1012A0008081823048F480E090E0A0E1B0E0E82A5C
:1012B000F92A0A2B1B2BA5C0843009F49FC0823069
:1012C00021F4EE24FF24870105C0E114F104010597
:1012D000110519F4E0E0F0E096C0628173819FEFA0
:1012E000623879070CF05BC022E83FEF261B370B12
:1012F0002A3131052CF020E030E040E050E02AC0F7
:10130000B801A701022E04C07695679557954795B9
:101310000A94D2F781E090E0A0E0B0E004C0880F2A
:10132000991FAA1FBB1F2A95D2F70197A109B109DE
:101330008E219F21A023B1230097A105B10521F0A3
:1013400081E090E0A0E0B0E09A01AB01282B392BBE
:101350004A2B5B2BDA01C9018F779070A070B070B7
:1013600080349105A105B10539F427FF09C0205C3F
:101370003F4F4F4F5F4F04C0215C3F4F4F4F5F4F78
:10138000E0E0F0E02030A0E03A07A0E04A07A0E467
:101390005A0710F0E1E0F0E079018A0127C06038D7
:1013A000710564F5FB01E158FF4FD801C7018F7744
:1013B0009070A070B07080349105A105B10539F42A
:1013C000E7FE0DC080E490E0A0E0B0E004C08FE351
:1013D00090E0A0E0B0E0E80EF91E0A1F1B1F17FF07
:1013E00005C016950795F794E794319687E0169512
:1013F0000795F794E7948A95D1F705C0EE24FF246A
:101400008701EFEFF0E06E2F679566276795902FC5
:101410009F77D794DD24D7948E2F8695492F462B1E
:10142000582F5D29B701CA011F910F91FF90EF90CE
:10143000DF900895FC01DB01408151812281622F00
:101440006F7770E0221F2227221F9381892F880F38
:10145000822B282F30E0991F9927991F11969C9372
:10146000119721153105A9F5411551056105710542
:1014700011F482E037C082E89FEF13969C938E931D
:1014800012979A01AB0167E0220F331F441F551FCB
:101490006A95D1F783E08C930DC0220F331F441F50
:1014A000551F12968D919C911397019713969C93BB
:1014B0008E931297203080E0380780E0480780E460
:1014C000580758F314962D933D934D935C931797BB
:1014D00008952F3F310579F44115510561057105D6
:1014E00019F484E08C93089564FF03C081E08C9329
:1014F00012C01C9210C02F57304013963C932E936D
:10150000129783E08C9387E0440F551F661F771F67
:101510008A95D1F7706414964D935D936D937C9387
:10152000179708951F93DC01FB019C91923008F4FA
:1015300047C08081823008F443C0943051F4119642
:101540001C91843099F58181682F70E0611B7109CD
:101550003FC0843021F0923031F48230B9F1818182
:10156000882389F12DC011961C9111978230F1F0DA
:1015700081811817D9F412962D913C91139782818D
:1015800093818217930794F028173907BCF01496BB
:101590008D919D910D90BC91A02D24813581468126
:1015A0005781281739074A075B0718F4112341F0C0
:1015B0000AC082179307A407B50740F4112319F056
:1015C00061E070E005C06FEF7FEF02C060E070E0A7
:1015D000CB011F910895AA1BBB1B51E107C0AA1F95
:1015E000BB1FA617B70710F0A61BB70B881F991FC4
:1015F0005A95A9F780959095BC01CD0108952F9239
:101600003F924F925F926F927F928F929F92AF9292
:10161000BF92CF92DF92EF92FF920F931F93CF93DF
:10162000DF93CDB7DEB7CA1BDB0B0FB6F894DEBF76
:101630000FBECDBF09942A88398848885F846E849C
:101640007D848C849B84AA84B984C884DF80EE80E6
:10165000FD800C811B81AA81B981CE0FD11D0FB6EF
:10166000F894DEBF0FBECDBFED010895F894FFCF13
:101670004C6566742042756D706572000052696732
:1016800068742042756D70657200000000000000F3
:101690000000000001020203030303040404040425
:1016A00004040405050505050505050505050505ED
:1016B00005050506060606060606060606060606CD
:1016C00006060606060606060606060606060606BA
:1016D000060606070707070707070707070707079D
:1016E000070707070707070707070707070707078A
:1016F000070707070707070707070707070707077A
:101700000707070707070707070707070707070769
:10171000070707080808080808080808080808084C
:101720000808080808080808080808080808080839
:101730000808080808080808080808080808080829
:101740000808080808080808080808080808080819
:101750000808080808080808080808080808080809
:1017600008080808080808080808080808080808F9
:1017700008080808080808080808080808080808E9
:1017800008080808080808080808080808080808D9
:04179000080808003D
:00000001FF
